{
  "contractName": "Vault",
  "abi": [
    {
      "inputs": [
        {
          "internalType": "address",
          "name": "user",
          "type": "address"
        }
      ],
      "stateMutability": "payable",
      "type": "constructor"
    },
    {
      "anonymous": false,
      "inputs": [
        {
          "indexed": true,
          "internalType": "address",
          "name": "previousOwner",
          "type": "address"
        },
        {
          "indexed": true,
          "internalType": "address",
          "name": "newOwner",
          "type": "address"
        }
      ],
      "name": "OwnershipTransferred",
      "type": "event"
    },
    {
      "stateMutability": "payable",
      "type": "fallback"
    },
    {
      "inputs": [],
      "name": "factory",
      "outputs": [
        {
          "internalType": "address",
          "name": "",
          "type": "address"
        }
      ],
      "stateMutability": "view",
      "type": "function"
    },
    {
      "inputs": [],
      "name": "gasAllowance",
      "outputs": [
        {
          "internalType": "uint256",
          "name": "",
          "type": "uint256"
        }
      ],
      "stateMutability": "view",
      "type": "function"
    },
    {
      "inputs": [],
      "name": "minAmountOut",
      "outputs": [
        {
          "internalType": "uint256",
          "name": "",
          "type": "uint256"
        }
      ],
      "stateMutability": "view",
      "type": "function"
    },
    {
      "inputs": [],
      "name": "owner",
      "outputs": [
        {
          "internalType": "address",
          "name": "",
          "type": "address"
        }
      ],
      "stateMutability": "view",
      "type": "function"
    },
    {
      "inputs": [],
      "name": "renounceOwnership",
      "outputs": [],
      "stateMutability": "nonpayable",
      "type": "function"
    },
    {
      "inputs": [],
      "name": "targetAddress",
      "outputs": [
        {
          "internalType": "address",
          "name": "",
          "type": "address"
        }
      ],
      "stateMutability": "view",
      "type": "function"
    },
    {
      "inputs": [
        {
          "internalType": "address",
          "name": "newOwner",
          "type": "address"
        }
      ],
      "name": "transferOwnership",
      "outputs": [],
      "stateMutability": "nonpayable",
      "type": "function"
    },
    {
      "stateMutability": "payable",
      "type": "receive"
    },
    {
      "inputs": [],
      "name": "isFactory",
      "outputs": [
        {
          "internalType": "bool",
          "name": "",
          "type": "bool"
        }
      ],
      "stateMutability": "view",
      "type": "function"
    },
    {
      "inputs": [],
      "name": "hasTarget",
      "outputs": [
        {
          "internalType": "bool",
          "name": "",
          "type": "bool"
        }
      ],
      "stateMutability": "view",
      "type": "function"
    },
    {
      "inputs": [
        {
          "internalType": "address",
          "name": "_target",
          "type": "address"
        }
      ],
      "name": "setTarget",
      "outputs": [],
      "stateMutability": "nonpayable",
      "type": "function"
    },
    {
      "inputs": [
        {
          "internalType": "uint256",
          "name": "_gasAllowance",
          "type": "uint256"
        }
      ],
      "name": "setGasAllowance",
      "outputs": [],
      "stateMutability": "nonpayable",
      "type": "function"
    },
    {
      "inputs": [
        {
          "internalType": "uint256",
          "name": "_minAmountOut",
          "type": "uint256"
        }
      ],
      "name": "setMinAmountOut",
      "outputs": [],
      "stateMutability": "nonpayable",
      "type": "function"
    },
    {
      "inputs": [
        {
          "internalType": "address",
          "name": "_target",
          "type": "address"
        },
        {
          "internalType": "uint256",
          "name": "_gasAllowance",
          "type": "uint256"
        }
      ],
      "name": "setTargetAndGas",
      "outputs": [],
      "stateMutability": "nonpayable",
      "type": "function"
    },
    {
      "inputs": [
        {
          "internalType": "address",
          "name": "_target",
          "type": "address"
        },
        {
          "internalType": "uint256",
          "name": "_minAmountOut",
          "type": "uint256"
        }
      ],
      "name": "setTargetAndMinAmountOut",
      "outputs": [],
      "stateMutability": "nonpayable",
      "type": "function"
    },
    {
      "inputs": [
        {
          "internalType": "uint256",
          "name": "_gasAllowance",
          "type": "uint256"
        },
        {
          "internalType": "uint256",
          "name": "_minAmountOut",
          "type": "uint256"
        }
      ],
      "name": "setGasAndMinAmountOut",
      "outputs": [],
      "stateMutability": "nonpayable",
      "type": "function"
    },
    {
      "inputs": [
        {
          "internalType": "address",
          "name": "_target",
          "type": "address"
        },
        {
          "internalType": "uint256",
          "name": "_gasAllowance",
          "type": "uint256"
        },
        {
          "internalType": "uint256",
          "name": "_minAmountOut",
          "type": "uint256"
        }
      ],
      "name": "setTargetAndGasAndMinAmountOut",
      "outputs": [],
      "stateMutability": "nonpayable",
      "type": "function"
    },
    {
      "inputs": [],
      "name": "executeTarget",
      "outputs": [],
      "stateMutability": "nonpayable",
      "type": "function"
    },
    {
      "inputs": [
        {
          "internalType": "uint256",
          "name": "_amount",
          "type": "uint256"
        }
      ],
      "name": "withdraw",
      "outputs": [],
      "stateMutability": "nonpayable",
      "type": "function"
    }
  ],
  "bytecode": "0x60806040526040516200156e3803806200156e833981810160405281019062000029919062000316565b620000496200003d620000a260201b60201c565b620000aa60201b60201c565b6200005a816200016e60201b60201c565b33600160006101000a81548173ffffffffffffffffffffffffffffffffffffffff021916908373ffffffffffffffffffffffffffffffffffffffff1602179055505062000463565b600033905090565b60008060009054906101000a900473ffffffffffffffffffffffffffffffffffffffff169050816000806101000a81548173ffffffffffffffffffffffffffffffffffffffff021916908373ffffffffffffffffffffffffffffffffffffffff1602179055508173ffffffffffffffffffffffffffffffffffffffff168173ffffffffffffffffffffffffffffffffffffffff167f8be0079c531659141344cd1fd0a4f28419497f9722a3daafe3b4186f6b6457e060405160405180910390a35050565b6200017e620000a260201b60201c565b73ffffffffffffffffffffffffffffffffffffffff16620001a46200028360201b60201c565b73ffffffffffffffffffffffffffffffffffffffff1614620001fd576040517f08c379a0000000000000000000000000000000000000000000000000000000008152600401620001f490620003a9565b60405180910390fd5b600073ffffffffffffffffffffffffffffffffffffffff168173ffffffffffffffffffffffffffffffffffffffff16036200026f576040517f08c379a0000000000000000000000000000000000000000000000000000000008152600401620002669062000441565b60405180910390fd5b6200028081620000aa60201b60201c565b50565b60008060009054906101000a900473ffffffffffffffffffffffffffffffffffffffff16905090565b600080fd5b600073ffffffffffffffffffffffffffffffffffffffff82169050919050565b6000620002de82620002b1565b9050919050565b620002f081620002d1565b8114620002fc57600080fd5b50565b6000815190506200031081620002e5565b92915050565b6000602082840312156200032f576200032e620002ac565b5b60006200033f84828501620002ff565b91505092915050565b600082825260208201905092915050565b7f4f776e61626c653a2063616c6c6572206973206e6f7420746865206f776e6572600082015250565b60006200039160208362000348565b91506200039e8262000359565b602082019050919050565b60006020820190508181036000830152620003c48162000382565b9050919050565b7f4f776e61626c653a206e6577206f776e657220697320746865207a65726f206160008201527f6464726573730000000000000000000000000000000000000000000000000000602082015250565b60006200042960268362000348565b91506200043682620003cb565b604082019050919050565b600060208201905081810360008301526200045c816200041a565b9050919050565b6110fb80620004736000396000f3fe60806040526004361061010d5760003560e01c8063776d1a0111610095578063c54d7bac11610064578063c54d7bac14610313578063ce19fb4e1461033c578063e5ee1d4014610365578063f2fde38b14610390578063f775cca7146103b957610114565b8063776d1a01146102695780638da5cb5b146102925780639177b671146102bd578063c45a0155146102e857610114565b80635210eb56116100dc5780635210eb56146101aa578063557bd159146101d55780636574448814610200578063715018a614610229578063738b74321461024057610114565b8063010679f91461011657806301a74a081461013f578063226680661461016a5780632e1a7d4d1461018157610114565b3661011457005b005b34801561012257600080fd5b5061013d60048036038101906101389190610d6d565b6103e2565b005b34801561014b57600080fd5b5061015461047e565b6040516101619190610ddb565b60405180910390f35b34801561017657600080fd5b5061017f6104d6565b005b34801561018d57600080fd5b506101a860048036038101906101a39190610df6565b610561565b005b3480156101b657600080fd5b506101bf61062d565b6040516101cc9190610e32565b60405180910390f35b3480156101e157600080fd5b506101ea610653565b6040516101f79190610e5c565b60405180910390f35b34801561020c57600080fd5b5061022760048036038101906102229190610df6565b610659565b005b34801561023557600080fd5b5061023e6106df565b005b34801561024c57600080fd5b5061026760048036038101906102629190610e77565b610767565b005b34801561027557600080fd5b50610290600480360381019061028b9190610eb7565b6107f9565b005b34801561029e57600080fd5b506102a76108b9565b6040516102b49190610e32565b60405180910390f35b3480156102c957600080fd5b506102d26108e2565b6040516102df9190610ddb565b60405180910390f35b3480156102f457600080fd5b506102fd61093b565b60405161030a9190610e32565b60405180910390f35b34801561031f57600080fd5b5061033a60048036038101906103359190610e77565b610961565b005b34801561034857600080fd5b50610363600480360381019061035e9190610ee4565b6109f3565b005b34801561037157600080fd5b5061037a610a85565b6040516103879190610e5c565b60405180910390f35b34801561039c57600080fd5b506103b760048036038101906103b29190610eb7565b610a8b565b005b3480156103c557600080fd5b506103e060048036038101906103db9190610df6565b610b82565b005b6103ea610c08565b73ffffffffffffffffffffffffffffffffffffffff166104086108b9565b73ffffffffffffffffffffffffffffffffffffffff161461045e576040517f08c379a000000000000000000000000000000000000000000000000000000000815260040161045590610f81565b60405180910390fd5b610467836107f9565b61047082610659565b61047981610b82565b505050565b6000600160009054906101000a900473ffffffffffffffffffffffffffffffffffffffff1673ffffffffffffffffffffffffffffffffffffffff163373ffffffffffffffffffffffffffffffffffffffff1614905090565b6104de61047e565b61051d576040517f08c379a000000000000000000000000000000000000000000000000000000000815260040161051490611013565b60405180910390fd5b6000600260006101000a81548173ffffffffffffffffffffffffffffffffffffffff021916908373ffffffffffffffffffffffffffffffffffffffff160217905550565b610569610c08565b73ffffffffffffffffffffffffffffffffffffffff166105876108b9565b73ffffffffffffffffffffffffffffffffffffffff16146105dd576040517f08c379a00000000000000000000000000000000000000000000000000000000081526004016105d490610f81565b60405180910390fd5b60003390508073ffffffffffffffffffffffffffffffffffffffff166108fc839081150290604051600060405180830381858888f19350505050158015610628573d6000803e3d6000fd5b505050565b600260009054906101000a900473ffffffffffffffffffffffffffffffffffffffff1681565b60045481565b610661610c08565b73ffffffffffffffffffffffffffffffffffffffff1661067f6108b9565b73ffffffffffffffffffffffffffffffffffffffff16146106d5576040517f08c379a00000000000000000000000000000000000000000000000000000000081526004016106cc90610f81565b60405180910390fd5b8060048190555050565b6106e7610c08565b73ffffffffffffffffffffffffffffffffffffffff166107056108b9565b73ffffffffffffffffffffffffffffffffffffffff161461075b576040517f08c379a000000000000000000000000000000000000000000000000000000000815260040161075290610f81565b60405180910390fd5b6107656000610c10565b565b61076f610c08565b73ffffffffffffffffffffffffffffffffffffffff1661078d6108b9565b73ffffffffffffffffffffffffffffffffffffffff16146107e3576040517f08c379a00000000000000000000000000000000000000000000000000000000081526004016107da90610f81565b60405180910390fd5b6107ec826107f9565b6107f581610659565b5050565b610801610c08565b73ffffffffffffffffffffffffffffffffffffffff1661081f6108b9565b73ffffffffffffffffffffffffffffffffffffffff1614610875576040517f08c379a000000000000000000000000000000000000000000000000000000000815260040161086c90610f81565b60405180910390fd5b80600260006101000a81548173ffffffffffffffffffffffffffffffffffffffff021916908373ffffffffffffffffffffffffffffffffffffffff16021790555050565b60008060009054906101000a900473ffffffffffffffffffffffffffffffffffffffff16905090565b60008073ffffffffffffffffffffffffffffffffffffffff16600260009054906101000a900473ffffffffffffffffffffffffffffffffffffffff1673ffffffffffffffffffffffffffffffffffffffff161415905090565b600160009054906101000a900473ffffffffffffffffffffffffffffffffffffffff1681565b610969610c08565b73ffffffffffffffffffffffffffffffffffffffff166109876108b9565b73ffffffffffffffffffffffffffffffffffffffff16146109dd576040517f08c379a00000000000000000000000000000000000000000000000000000000081526004016109d490610f81565b60405180910390fd5b6109e6826107f9565b6109ef81610b82565b5050565b6109fb610c08565b73ffffffffffffffffffffffffffffffffffffffff16610a196108b9565b73ffffffffffffffffffffffffffffffffffffffff1614610a6f576040517f08c379a0000000000000000000000000000000000000000000000000000000008152600401610a6690610f81565b60405180910390fd5b610a7882610659565b610a8181610b82565b5050565b60035481565b610a93610c08565b73ffffffffffffffffffffffffffffffffffffffff16610ab16108b9565b73ffffffffffffffffffffffffffffffffffffffff1614610b07576040517f08c379a0000000000000000000000000000000000000000000000000000000008152600401610afe90610f81565b60405180910390fd5b600073ffffffffffffffffffffffffffffffffffffffff168173ffffffffffffffffffffffffffffffffffffffff1603610b76576040517f08c379a0000000000000000000000000000000000000000000000000000000008152600401610b6d906110a5565b60405180910390fd5b610b7f81610c10565b50565b610b8a610c08565b73ffffffffffffffffffffffffffffffffffffffff16610ba86108b9565b73ffffffffffffffffffffffffffffffffffffffff1614610bfe576040517f08c379a0000000000000000000000000000000000000000000000000000000008152600401610bf590610f81565b60405180910390fd5b8060038190555050565b600033905090565b60008060009054906101000a900473ffffffffffffffffffffffffffffffffffffffff169050816000806101000a81548173ffffffffffffffffffffffffffffffffffffffff021916908373ffffffffffffffffffffffffffffffffffffffff1602179055508173ffffffffffffffffffffffffffffffffffffffff168173ffffffffffffffffffffffffffffffffffffffff167f8be0079c531659141344cd1fd0a4f28419497f9722a3daafe3b4186f6b6457e060405160405180910390a35050565b600080fd5b600073ffffffffffffffffffffffffffffffffffffffff82169050919050565b6000610d0482610cd9565b9050919050565b610d1481610cf9565b8114610d1f57600080fd5b50565b600081359050610d3181610d0b565b92915050565b6000819050919050565b610d4a81610d37565b8114610d5557600080fd5b50565b600081359050610d6781610d41565b92915050565b600080600060608486031215610d8657610d85610cd4565b5b6000610d9486828701610d22565b9350506020610da586828701610d58565b9250506040610db686828701610d58565b9150509250925092565b60008115159050919050565b610dd581610dc0565b82525050565b6000602082019050610df06000830184610dcc565b92915050565b600060208284031215610e0c57610e0b610cd4565b5b6000610e1a84828501610d58565b91505092915050565b610e2c81610cf9565b82525050565b6000602082019050610e476000830184610e23565b92915050565b610e5681610d37565b82525050565b6000602082019050610e716000830184610e4d565b92915050565b60008060408385031215610e8e57610e8d610cd4565b5b6000610e9c85828601610d22565b9250506020610ead85828601610d58565b9150509250929050565b600060208284031215610ecd57610ecc610cd4565b5b6000610edb84828501610d22565b91505092915050565b60008060408385031215610efb57610efa610cd4565b5b6000610f0985828601610d58565b9250506020610f1a85828601610d58565b9150509250929050565b600082825260208201905092915050565b7f4f776e61626c653a2063616c6c6572206973206e6f7420746865206f776e6572600082015250565b6000610f6b602083610f24565b9150610f7682610f35565b602082019050919050565b60006020820190508181036000830152610f9a81610f5e565b9050919050565b7f466163746f72793a2063616c6c6572206973206e6f742074686520666163746f60008201527f7279000000000000000000000000000000000000000000000000000000000000602082015250565b6000610ffd602283610f24565b915061100882610fa1565b604082019050919050565b6000602082019050818103600083015261102c81610ff0565b9050919050565b7f4f776e61626c653a206e6577206f776e657220697320746865207a65726f206160008201527f6464726573730000000000000000000000000000000000000000000000000000602082015250565b600061108f602683610f24565b915061109a82611033565b604082019050919050565b600060208201905081810360008301526110be81611082565b905091905056fea2646970667358221220d11f74656f656527004fb50f46dd75cc52cb2c7597df590ee6250caef5cc029464736f6c634300080d0033",
  "immutableReferences": {},
  "source": "pragma solidity ^0.8.0;\r\n\r\nimport \"@openzeppelin/contracts/access/Ownable.sol\";\r\n\r\ncontract Vault is Ownable {\r\n    \r\n    address public factory; \r\n\r\n    // Target data\r\n    address public targetAddress;\r\n    uint public minAmountOut;\r\n    uint public gasAllowance;\r\n\r\n    constructor (address user) payable {\r\n        transferOwnership(user);\r\n        factory = msg.sender;     \r\n    }\r\n\r\n    function isFactory() public view returns (bool) {\r\n        return msg.sender == factory;\r\n    }\r\n\r\n    modifier onlyFactory() {\r\n        require(isFactory(), \"Factory: caller is not the factory\");\r\n        _;\r\n    }\r\n\r\n    function hasTarget() public view returns (bool) {\r\n        return (targetAddress != address(0x0));\r\n    }\r\n\r\n    function setTarget(address _target) public onlyOwner {\r\n        targetAddress = _target;\r\n    }\r\n\r\n    function setGasAllowance(uint _gasAllowance) public onlyOwner {\r\n        gasAllowance = _gasAllowance;\r\n    }\r\n\r\n    function setMinAmountOut(uint _minAmountOut) public onlyOwner {\r\n        minAmountOut = _minAmountOut;\r\n    }\r\n\r\n    function setTargetAndGas(address _target, uint _gasAllowance) public onlyOwner {\r\n        setTarget(_target);\r\n        setGasAllowance(_gasAllowance);\r\n    }\r\n\r\n    function setTargetAndMinAmountOut(address _target, uint _minAmountOut) public onlyOwner {\r\n        setTarget(_target);\r\n        setMinAmountOut(_minAmountOut);\r\n    }\r\n\r\n    function setGasAndMinAmountOut(uint _gasAllowance, uint _minAmountOut) public onlyOwner {\r\n        setGasAllowance(_gasAllowance);\r\n        setMinAmountOut(_minAmountOut);\r\n    }\r\n\r\n    function setTargetAndGasAndMinAmountOut(address _target, uint _gasAllowance, uint _minAmountOut) public onlyOwner {\r\n        setTarget(_target);\r\n        setGasAllowance(_gasAllowance);\r\n        setMinAmountOut(_minAmountOut);\r\n    }\r\n\r\n    function executeTarget() public onlyFactory {\r\n        // delegate execution?\r\n        // user signs a valid transaction and vault contract holds it \r\n        // we execute it when parameters set in our UI are hit\r\n\r\n        // at the end this should reset \r\n        targetAddress = address(0x0);\r\n    }\r\n\r\n    function withdraw(uint _amount) external onlyOwner {\r\n        address payable _to = payable(msg.sender);\r\n        _to.transfer(_amount);\r\n    }\r\n\r\n\r\n    \r\n    receive() external payable {\r\n    /*\r\n        Which function is called, fallback() or receive()?\r\n\r\n                send Ether\r\n                    |\r\n            msg.data is empty?\r\n                    /   \\\r\n                   yes   no\r\n                   /       \\\r\n        receive() exists?  fallback()\r\n                /               \\\r\n              yes               no\r\n              /                  \\\r\n        receive()             fallback()\r\n    */\r\n    }\r\n\r\n    fallback() external payable {}\r\n}\r\n\r\ncontract VaultFactory is Ownable {\r\n\r\n    mapping(address => Vault) private deployedVaults;\r\n\r\n    constructor () {}\r\n    \r\n    function hasVault(address _user) public view returns (bool) {\r\n        return (address(deployedVaults[_user]) != address(0x0));\r\n    }\r\n\r\n    function createVault() public payable {\r\n        require(!hasVault(msg.sender), \"ADDRESS_HAS_VAULT\");\r\n        deployedVaults[msg.sender] = new Vault{value: msg.value}(msg.sender);\r\n    }\r\n\r\n    function getVaultAddress(address _user) public view returns (address) {\r\n        return address(deployedVaults[_user]);\r\n    }\r\n\r\n    function executeUserVault(address _user) public onlyOwner {\r\n        deployedVaults[_user].executeTarget();\r\n    }\r\n}\r\n",
  "sourcePath": "C:\\Users\\steba\\Documents\\GitHub\\adam\\osok_smart_contracts\\contracts\\VaultFactory.sol",
  "compiler": {
    "name": "solc",
    "version": "0.8.13+commit.abaa5c0e.Emscripten.clang"
  },
  "schemaVersion": "3.4.7",
  "updatedAt": "2022-04-25T21:27:42.603Z",
  "networkType": "ethereum",
  "devdoc": {
    "kind": "dev",
    "methods": {
      "owner()": {
        "details": "Returns the address of the current owner."
      },
      "renounceOwnership()": {
        "details": "Leaves the contract without owner. It will not be possible to call `onlyOwner` functions anymore. Can only be called by the current owner. NOTE: Renouncing ownership will leave the contract without an owner, thereby removing any functionality that is only available to the owner."
      },
      "transferOwnership(address)": {
        "details": "Transfers ownership of the contract to a new account (`newOwner`). Can only be called by the current owner."
      }
    },
    "version": 1
  },
  "userdoc": {
    "kind": "user",
    "methods": {},
    "version": 1
  }
}