{
  "contractName": "Vault",
  "abi": [
    {
      "inputs": [
        {
          "internalType": "address",
          "name": "user",
          "type": "address"
        }
      ],
      "stateMutability": "payable",
      "type": "constructor"
    },
    {
      "anonymous": false,
      "inputs": [
        {
          "indexed": true,
          "internalType": "address",
          "name": "previousOwner",
          "type": "address"
        },
        {
          "indexed": true,
          "internalType": "address",
          "name": "newOwner",
          "type": "address"
        }
      ],
      "name": "OwnershipTransferred",
      "type": "event"
    },
    {
      "stateMutability": "payable",
      "type": "fallback"
    },
    {
      "inputs": [],
      "name": "factory",
      "outputs": [
        {
          "internalType": "address",
          "name": "",
          "type": "address"
        }
      ],
      "stateMutability": "view",
      "type": "function"
    },
    {
      "inputs": [],
      "name": "gasAllowance",
      "outputs": [
        {
          "internalType": "uint256",
          "name": "",
          "type": "uint256"
        }
      ],
      "stateMutability": "view",
      "type": "function"
    },
    {
      "inputs": [
        {
          "internalType": "uint256",
          "name": "",
          "type": "uint256"
        }
      ],
      "name": "jobHistory",
      "outputs": [
        {
          "internalType": "address",
          "name": "target",
          "type": "address"
        },
        {
          "internalType": "uint256",
          "name": "amountIn",
          "type": "uint256"
        },
        {
          "internalType": "uint256",
          "name": "amountOut",
          "type": "uint256"
        },
        {
          "internalType": "uint256",
          "name": "time",
          "type": "uint256"
        },
        {
          "internalType": "uint256",
          "name": "blockNumber",
          "type": "uint256"
        },
        {
          "internalType": "uint256",
          "name": "gasPrice",
          "type": "uint256"
        },
        {
          "internalType": "uint256",
          "name": "gasCostBNB",
          "type": "uint256"
        }
      ],
      "stateMutability": "view",
      "type": "function"
    },
    {
      "inputs": [],
      "name": "minAmountOut",
      "outputs": [
        {
          "internalType": "uint256",
          "name": "",
          "type": "uint256"
        }
      ],
      "stateMutability": "view",
      "type": "function"
    },
    {
      "inputs": [],
      "name": "owner",
      "outputs": [
        {
          "internalType": "address",
          "name": "",
          "type": "address"
        }
      ],
      "stateMutability": "view",
      "type": "function"
    },
    {
      "inputs": [],
      "name": "renounceOwnership",
      "outputs": [],
      "stateMutability": "nonpayable",
      "type": "function"
    },
    {
      "inputs": [],
      "name": "targetAddress",
      "outputs": [
        {
          "internalType": "address",
          "name": "",
          "type": "address"
        }
      ],
      "stateMutability": "view",
      "type": "function"
    },
    {
      "inputs": [
        {
          "internalType": "address",
          "name": "newOwner",
          "type": "address"
        }
      ],
      "name": "transferOwnership",
      "outputs": [],
      "stateMutability": "nonpayable",
      "type": "function"
    },
    {
      "stateMutability": "payable",
      "type": "receive"
    },
    {
      "inputs": [],
      "name": "isFactory",
      "outputs": [
        {
          "internalType": "bool",
          "name": "",
          "type": "bool"
        }
      ],
      "stateMutability": "view",
      "type": "function"
    },
    {
      "inputs": [],
      "name": "hasTarget",
      "outputs": [
        {
          "internalType": "bool",
          "name": "",
          "type": "bool"
        }
      ],
      "stateMutability": "view",
      "type": "function"
    },
    {
      "inputs": [
        {
          "internalType": "address",
          "name": "_target",
          "type": "address"
        }
      ],
      "name": "setTarget",
      "outputs": [],
      "stateMutability": "nonpayable",
      "type": "function"
    },
    {
      "inputs": [
        {
          "internalType": "uint256",
          "name": "_gasAllowance",
          "type": "uint256"
        }
      ],
      "name": "setGasAllowance",
      "outputs": [],
      "stateMutability": "nonpayable",
      "type": "function"
    },
    {
      "inputs": [],
      "name": "executeTarget",
      "outputs": [],
      "stateMutability": "nonpayable",
      "type": "function"
    },
    {
      "inputs": [
        {
          "internalType": "uint256",
          "name": "_amount",
          "type": "uint256"
        }
      ],
      "name": "withdraw",
      "outputs": [],
      "stateMutability": "nonpayable",
      "type": "function"
    },
    {
      "inputs": [],
      "name": "getHistory",
      "outputs": [
        {
          "components": [
            {
              "internalType": "address",
              "name": "target",
              "type": "address"
            },
            {
              "internalType": "uint256",
              "name": "amountIn",
              "type": "uint256"
            },
            {
              "internalType": "uint256",
              "name": "amountOut",
              "type": "uint256"
            },
            {
              "internalType": "uint256",
              "name": "time",
              "type": "uint256"
            },
            {
              "internalType": "uint256",
              "name": "blockNumber",
              "type": "uint256"
            },
            {
              "internalType": "uint256",
              "name": "gasPrice",
              "type": "uint256"
            },
            {
              "internalType": "uint256",
              "name": "gasCostBNB",
              "type": "uint256"
            }
          ],
          "internalType": "struct Vault.Job[]",
          "name": "",
          "type": "tuple[]"
        }
      ],
      "stateMutability": "view",
      "type": "function"
    }
  ],
  "bytecode": "0x6080604052604051620015c6380380620015c683398181016040528101906200002991906200044a565b620000496200003d620001d660201b60201c565b620001de60201b60201c565b6200005a81620002a260201b60201c565b33600160006101000a81548173ffffffffffffffffffffffffffffffffffffffff021916908373ffffffffffffffffffffffffffffffffffffffff16021790555060006040518060e0016040528073f4505e3b9beeab5ddfad7e7a90f0db89dd61efe173ffffffffffffffffffffffffffffffffffffffff168152602001670de0b6b3a76400008152602001680bb99385589add1a00815260200163626de9cd8152602001630109ed58815260200160058152602001660630ae4af0c6008152509050600581908060018154018082558091505060019003906000526020600020906007020160009091909190915060008201518160000160006101000a81548173ffffffffffffffffffffffffffffffffffffffff021916908373ffffffffffffffffffffffffffffffffffffffff1602179055506020820151816001015560408201518160020155606082015181600301556080820151816004015560a0820151816005015560c082015181600601555050505062000597565b600033905090565b60008060009054906101000a900473ffffffffffffffffffffffffffffffffffffffff169050816000806101000a81548173ffffffffffffffffffffffffffffffffffffffff021916908373ffffffffffffffffffffffffffffffffffffffff1602179055508173ffffffffffffffffffffffffffffffffffffffff168173ffffffffffffffffffffffffffffffffffffffff167f8be0079c531659141344cd1fd0a4f28419497f9722a3daafe3b4186f6b6457e060405160405180910390a35050565b620002b2620001d660201b60201c565b73ffffffffffffffffffffffffffffffffffffffff16620002d8620003b760201b60201c565b73ffffffffffffffffffffffffffffffffffffffff161462000331576040517f08c379a00000000000000000000000000000000000000000000000000000000081526004016200032890620004dd565b60405180910390fd5b600073ffffffffffffffffffffffffffffffffffffffff168173ffffffffffffffffffffffffffffffffffffffff1603620003a3576040517f08c379a00000000000000000000000000000000000000000000000000000000081526004016200039a9062000575565b60405180910390fd5b620003b481620001de60201b60201c565b50565b60008060009054906101000a900473ffffffffffffffffffffffffffffffffffffffff16905090565b600080fd5b600073ffffffffffffffffffffffffffffffffffffffff82169050919050565b60006200041282620003e5565b9050919050565b620004248162000405565b81146200043057600080fd5b50565b600081519050620004448162000419565b92915050565b600060208284031215620004635762000462620003e0565b5b6000620004738482850162000433565b91505092915050565b600082825260208201905092915050565b7f4f776e61626c653a2063616c6c6572206973206e6f7420746865206f776e6572600082015250565b6000620004c56020836200047c565b9150620004d2826200048d565b602082019050919050565b60006020820190508181036000830152620004f881620004b6565b9050919050565b7f4f776e61626c653a206e6577206f776e657220697320746865207a65726f206160008201527f6464726573730000000000000000000000000000000000000000000000000000602082015250565b60006200055d6026836200047c565b91506200056a82620004ff565b604082019050919050565b6000602082019050818103600083015262000590816200054e565b9050919050565b61101f80620005a76000396000f3fe6080604052600436106100ec5760003560e01c8063776d1a011161008a578063aa15efc811610059578063aa15efc8146102b8578063c45a0155146102e3578063e5ee1d401461030e578063f2fde38b14610339576100f3565b8063776d1a01146101f657806378b7f2981461021f5780638da5cb5b146102625780639177b6711461028d576100f3565b80635210eb56116100c65780635210eb5614610160578063557bd1591461018b57806365744488146101b6578063715018a6146101df576100f3565b806301a74a08146100f557806322668066146101205780632e1a7d4d14610137576100f3565b366100f357005b005b34801561010157600080fd5b5061010a610362565b6040516101179190610afa565b60405180910390f35b34801561012c57600080fd5b506101356103ba565b005b34801561014357600080fd5b5061015e60048036038101906101599190610b50565b610445565b005b34801561016c57600080fd5b50610175610511565b6040516101829190610bbe565b60405180910390f35b34801561019757600080fd5b506101a0610537565b6040516101ad9190610be8565b60405180910390f35b3480156101c257600080fd5b506101dd60048036038101906101d89190610b50565b61053d565b005b3480156101eb57600080fd5b506101f46105c3565b005b34801561020257600080fd5b5061021d60048036038101906102189190610c2f565b61064b565b005b34801561022b57600080fd5b5061024660048036038101906102419190610b50565b61070b565b6040516102599796959493929190610c5c565b60405180910390f35b34801561026e57600080fd5b5061027761077d565b6040516102849190610bbe565b60405180910390f35b34801561029957600080fd5b506102a26107a6565b6040516102af9190610afa565b60405180910390f35b3480156102c457600080fd5b506102cd6107ff565b6040516102da9190610e26565b60405180910390f35b3480156102ef57600080fd5b506102f86108f0565b6040516103059190610bbe565b60405180910390f35b34801561031a57600080fd5b50610323610916565b6040516103309190610be8565b60405180910390f35b34801561034557600080fd5b50610360600480360381019061035b9190610c2f565b61091c565b005b6000600160009054906101000a900473ffffffffffffffffffffffffffffffffffffffff1673ffffffffffffffffffffffffffffffffffffffff163373ffffffffffffffffffffffffffffffffffffffff1614905090565b6103c2610362565b610401576040517f08c379a00000000000000000000000000000000000000000000000000000000081526004016103f890610ecb565b60405180910390fd5b6000600260006101000a81548173ffffffffffffffffffffffffffffffffffffffff021916908373ffffffffffffffffffffffffffffffffffffffff160217905550565b61044d610a13565b73ffffffffffffffffffffffffffffffffffffffff1661046b61077d565b73ffffffffffffffffffffffffffffffffffffffff16146104c1576040517f08c379a00000000000000000000000000000000000000000000000000000000081526004016104b890610f37565b60405180910390fd5b60003390508073ffffffffffffffffffffffffffffffffffffffff166108fc839081150290604051600060405180830381858888f1935050505015801561050c573d6000803e3d6000fd5b505050565b600260009054906101000a900473ffffffffffffffffffffffffffffffffffffffff1681565b60045481565b610545610a13565b73ffffffffffffffffffffffffffffffffffffffff1661056361077d565b73ffffffffffffffffffffffffffffffffffffffff16146105b9576040517f08c379a00000000000000000000000000000000000000000000000000000000081526004016105b090610f37565b60405180910390fd5b8060048190555050565b6105cb610a13565b73ffffffffffffffffffffffffffffffffffffffff166105e961077d565b73ffffffffffffffffffffffffffffffffffffffff161461063f576040517f08c379a000000000000000000000000000000000000000000000000000000000815260040161063690610f37565b60405180910390fd5b6106496000610a1b565b565b610653610a13565b73ffffffffffffffffffffffffffffffffffffffff1661067161077d565b73ffffffffffffffffffffffffffffffffffffffff16146106c7576040517f08c379a00000000000000000000000000000000000000000000000000000000081526004016106be90610f37565b60405180910390fd5b80600260006101000a81548173ffffffffffffffffffffffffffffffffffffffff021916908373ffffffffffffffffffffffffffffffffffffffff16021790555050565b6005818154811061071b57600080fd5b90600052602060002090600702016000915090508060000160009054906101000a900473ffffffffffffffffffffffffffffffffffffffff16908060010154908060020154908060030154908060040154908060050154908060060154905087565b60008060009054906101000a900473ffffffffffffffffffffffffffffffffffffffff16905090565b60008073ffffffffffffffffffffffffffffffffffffffff16600260009054906101000a900473ffffffffffffffffffffffffffffffffffffffff1673ffffffffffffffffffffffffffffffffffffffff161415905090565b60606005805480602002602001604051908101604052809291908181526020016000905b828210156108e757838290600052602060002090600702016040518060e00160405290816000820160009054906101000a900473ffffffffffffffffffffffffffffffffffffffff1673ffffffffffffffffffffffffffffffffffffffff1673ffffffffffffffffffffffffffffffffffffffff168152602001600182015481526020016002820154815260200160038201548152602001600482015481526020016005820154815260200160068201548152505081526020019060010190610823565b50505050905090565b600160009054906101000a900473ffffffffffffffffffffffffffffffffffffffff1681565b60035481565b610924610a13565b73ffffffffffffffffffffffffffffffffffffffff1661094261077d565b73ffffffffffffffffffffffffffffffffffffffff1614610998576040517f08c379a000000000000000000000000000000000000000000000000000000000815260040161098f90610f37565b60405180910390fd5b600073ffffffffffffffffffffffffffffffffffffffff168173ffffffffffffffffffffffffffffffffffffffff1603610a07576040517f08c379a00000000000000000000000000000000000000000000000000000000081526004016109fe90610fc9565b60405180910390fd5b610a1081610a1b565b50565b600033905090565b60008060009054906101000a900473ffffffffffffffffffffffffffffffffffffffff169050816000806101000a81548173ffffffffffffffffffffffffffffffffffffffff021916908373ffffffffffffffffffffffffffffffffffffffff1602179055508173ffffffffffffffffffffffffffffffffffffffff168173ffffffffffffffffffffffffffffffffffffffff167f8be0079c531659141344cd1fd0a4f28419497f9722a3daafe3b4186f6b6457e060405160405180910390a35050565b60008115159050919050565b610af481610adf565b82525050565b6000602082019050610b0f6000830184610aeb565b92915050565b600080fd5b6000819050919050565b610b2d81610b1a565b8114610b3857600080fd5b50565b600081359050610b4a81610b24565b92915050565b600060208284031215610b6657610b65610b15565b5b6000610b7484828501610b3b565b91505092915050565b600073ffffffffffffffffffffffffffffffffffffffff82169050919050565b6000610ba882610b7d565b9050919050565b610bb881610b9d565b82525050565b6000602082019050610bd36000830184610baf565b92915050565b610be281610b1a565b82525050565b6000602082019050610bfd6000830184610bd9565b92915050565b610c0c81610b9d565b8114610c1757600080fd5b50565b600081359050610c2981610c03565b92915050565b600060208284031215610c4557610c44610b15565b5b6000610c5384828501610c1a565b91505092915050565b600060e082019050610c71600083018a610baf565b610c7e6020830189610bd9565b610c8b6040830188610bd9565b610c986060830187610bd9565b610ca56080830186610bd9565b610cb260a0830185610bd9565b610cbf60c0830184610bd9565b98975050505050505050565b600081519050919050565b600082825260208201905092915050565b6000819050602082019050919050565b610d0081610b9d565b82525050565b610d0f81610b1a565b82525050565b60e082016000820151610d2b6000850182610cf7565b506020820151610d3e6020850182610d06565b506040820151610d516040850182610d06565b506060820151610d646060850182610d06565b506080820151610d776080850182610d06565b5060a0820151610d8a60a0850182610d06565b5060c0820151610d9d60c0850182610d06565b50505050565b6000610daf8383610d15565b60e08301905092915050565b6000602082019050919050565b6000610dd382610ccb565b610ddd8185610cd6565b9350610de883610ce7565b8060005b83811015610e19578151610e008882610da3565b9750610e0b83610dbb565b925050600181019050610dec565b5085935050505092915050565b60006020820190508181036000830152610e408184610dc8565b905092915050565b600082825260208201905092915050565b7f466163746f72793a2063616c6c6572206973206e6f742074686520666163746f60008201527f7279000000000000000000000000000000000000000000000000000000000000602082015250565b6000610eb5602283610e48565b9150610ec082610e59565b604082019050919050565b60006020820190508181036000830152610ee481610ea8565b9050919050565b7f4f776e61626c653a2063616c6c6572206973206e6f7420746865206f776e6572600082015250565b6000610f21602083610e48565b9150610f2c82610eeb565b602082019050919050565b60006020820190508181036000830152610f5081610f14565b9050919050565b7f4f776e61626c653a206e6577206f776e657220697320746865207a65726f206160008201527f6464726573730000000000000000000000000000000000000000000000000000602082015250565b6000610fb3602683610e48565b9150610fbe82610f57565b604082019050919050565b60006020820190508181036000830152610fe281610fa6565b905091905056fea264697066735822122059266b4c8300dd7909ad75b652fe0ed78da8a55e7094a86a9fe235f1be38ecd764736f6c634300080d0033",
  "immutableReferences": {},
  "source": "pragma solidity ^0.8.0;\r\n\r\nimport \"@openzeppelin/contracts/access/Ownable.sol\";\r\n\r\ncontract Vault is Ownable {\r\n    \r\n    address public factory; \r\n\r\n    // Target data\r\n    address public targetAddress;\r\n    uint public minAmountOut;\r\n    uint public gasAllowance;\r\n\r\n    struct Job {\r\n        address target;\r\n        uint amountIn;\r\n        uint amountOut;\r\n        uint time;\r\n        uint blockNumber;\r\n        uint gasPrice;\r\n        uint gasCostBNB;\r\n    }\r\n\r\n    Job[] public jobHistory;\r\n\r\n    constructor (address user) payable {\r\n        transferOwnership(user);\r\n        factory = msg.sender;\r\n\r\n        Job memory _job = Job(\r\n            0xF4505E3B9BeeAB5dDFaD7e7a90f0DB89dD61EfE1,\r\n            1000000000000000000,\r\n            216286363145000000000,\r\n            1651370445,\r\n            17427800,\r\n            5,\r\n            1742375000000000\r\n            );\r\n\r\n        jobHistory.push(_job);\r\n    }\r\n\r\n    function isFactory() public view returns (bool) {\r\n        return msg.sender == factory;\r\n    }\r\n\r\n    modifier onlyFactory() {\r\n        require(isFactory(), \"Factory: caller is not the factory\");\r\n        _;\r\n    }\r\n\r\n    function hasTarget() public view returns (bool) {\r\n        return (targetAddress != address(0x0));\r\n    }\r\n\r\n    function setTarget(address _target) public onlyOwner {\r\n        targetAddress = _target;\r\n    }\r\n\r\n    function setGasAllowance(uint _gasAllowance) public onlyOwner {\r\n        gasAllowance = _gasAllowance;\r\n    }\r\n\r\n    function executeTarget() public onlyFactory {\r\n        // delegate execution?\r\n        // user signs a valid transaction and vault contract holds it \r\n        // we execute it when parameters set in our UI are hit\r\n\r\n        // at the end this should reset \r\n        targetAddress = address(0x0);\r\n    }\r\n\r\n    function withdraw(uint _amount) external onlyOwner {\r\n        address payable _to = payable(msg.sender);\r\n        _to.transfer(_amount);\r\n    }\r\n\r\n    function getHistory() public view returns (Job[] memory) {\r\n        return jobHistory;\r\n    }\r\n\r\n    \r\n    receive() external payable {\r\n    /*\r\n        Which function is called, fallback() or receive()?\r\n\r\n                send Ether\r\n                    |\r\n            msg.data is empty?\r\n                    /   \\\r\n                   yes   no\r\n                   /       \\\r\n        receive() exists?  fallback()\r\n                /               \\\r\n              yes               no\r\n              /                  \\\r\n        receive()             fallback()\r\n    */\r\n    }\r\n\r\n    fallback() external payable {}\r\n}\r\n\r\ncontract VaultFactory is Ownable {\r\n\r\n    mapping(address => Vault) private deployedVaults;\r\n\r\n    constructor () {}\r\n    \r\n    function hasVault(address _user) public view returns (bool) {\r\n        return (address(deployedVaults[_user]) != address(0x0));\r\n    }\r\n\r\n    function createVault() public payable {\r\n        require(!hasVault(msg.sender), \"ADDRESS_HAS_VAULT\");\r\n        deployedVaults[msg.sender] = new Vault{value: msg.value}(msg.sender);\r\n    }\r\n\r\n    function getVaultAddress(address _user) public view returns (address) {\r\n        return address(deployedVaults[_user]);\r\n    }\r\n\r\n    function executeUserVault(address _user) public onlyOwner {\r\n        deployedVaults[_user].executeTarget();\r\n    }\r\n}\r\n",
  "sourcePath": "C:\\Users\\steba\\Documents\\GitHub\\adam\\osok_smart_contracts\\contracts\\VaultFactory.sol",
  "compiler": {
    "name": "solc",
    "version": "0.8.13+commit.abaa5c0e.Emscripten.clang"
  },
  "schemaVersion": "3.4.7",
  "updatedAt": "2022-05-02T10:51:17.966Z",
  "devdoc": {
    "kind": "dev",
    "methods": {
      "owner()": {
        "details": "Returns the address of the current owner."
      },
      "renounceOwnership()": {
        "details": "Leaves the contract without owner. It will not be possible to call `onlyOwner` functions anymore. Can only be called by the current owner. NOTE: Renouncing ownership will leave the contract without an owner, thereby removing any functionality that is only available to the owner."
      },
      "transferOwnership(address)": {
        "details": "Transfers ownership of the contract to a new account (`newOwner`). Can only be called by the current owner."
      }
    },
    "version": 1
  },
  "userdoc": {
    "kind": "user",
    "methods": {},
    "version": 1
  }
}